{
  "address": "0x32D683fC704A8A3fab30e9d62d22Ec27C7402D4B",
  "abi": [
    {
      "inputs": [],
      "stateMutability": "nonpayable",
      "type": "constructor"
    },
    {
      "inputs": [],
      "name": "balance",
      "outputs": [
        {
          "internalType": "uint256",
          "name": "",
          "type": "uint256"
        }
      ],
      "stateMutability": "view",
      "type": "function"
    },
    {
      "inputs": [
        {
          "internalType": "uint256",
          "name": "amount",
          "type": "uint256"
        }
      ],
      "name": "save",
      "outputs": [],
      "stateMutability": "nonpayable",
      "type": "function"
    },
    {
      "inputs": [
        {
          "internalType": "uint256",
          "name": "amount",
          "type": "uint256"
        },
        {
          "internalType": "address",
          "name": "receipent",
          "type": "address"
        }
      ],
      "name": "spend",
      "outputs": [],
      "stateMutability": "nonpayable",
      "type": "function"
    }
  ],
  "transactionHash": "0x45494945f872128a541b7f1c2864689d389f8e70f86933ebcecd978ba6749d43",
  "args": [],
  "numDeployments": 1,
  "solcInputHash": "8c02854a3724302c932dc779354fc869",
  "bytecode": "0x6080604052736b175474e89094c44da98b954eedeac495271d0f600160006101000a81548173ffffffffffffffffffffffffffffffffffffffff021916908373ffffffffffffffffffffffffffffffffffffffff16021790555073c2cb1040220768554cf699b0d863a3cd4324ce32600260006101000a81548173ffffffffffffffffffffffffffffffffffffffff021916908373ffffffffffffffffffffffffffffffffffffffff16021790555073a0b86991c6218b36c1d19d4a2e9eb0ce3606eb48600360006101000a81548173ffffffffffffffffffffffffffffffffffffffff021916908373ffffffffffffffffffffffffffffffffffffffff1602179055507326ea744e5b887e5205727f55dfbe8685e3b21951600460006101000a81548173ffffffffffffffffffffffffffffffffffffffff021916908373ffffffffffffffffffffffffffffffffffffffff16021790555073dac17f958d2ee523a2206206994597c13d831ec7600560006101000a81548173ffffffffffffffffffffffffffffffffffffffff021916908373ffffffffffffffffffffffffffffffffffffffff16021790555073e6354ed5bc4b393a5aad09f21c46e101e692d447600660006101000a81548173ffffffffffffffffffffffffffffffffffffffff021916908373ffffffffffffffffffffffffffffffffffffffff16021790555034801561020e57600080fd5b50336000806101000a81548173ffffffffffffffffffffffffffffffffffffffff021916908373ffffffffffffffffffffffffffffffffffffffff160217905550610a818061025e6000396000f3fe608060405234801561001057600080fd5b50600436106100415760003560e01c80631b862027146100465780631e9f59db14610062578063b69ef8a81461007e575b600080fd5b610060600480360381019061005b9190610737565b61009c565b005b61007c600480360381019061007791906107c2565b61014b565b005b610086610460565b6040516100939190610811565b60405180910390f35b600160009054906101000a900473ffffffffffffffffffffffffffffffffffffffff1673ffffffffffffffffffffffffffffffffffffffff166323b872dd3330846040518463ffffffff1660e01b81526004016100fb9392919061083b565b6020604051808303816000875af115801561011a573d6000803e3d6000fd5b505050506040513d601f19601f8201168201806040525081019061013e91906108aa565b50610148816105a9565b50565b60008054906101000a900473ffffffffffffffffffffffffffffffffffffffff1673ffffffffffffffffffffffffffffffffffffffff163373ffffffffffffffffffffffffffffffffffffffff16146101d9576040517f08c379a00000000000000000000000000000000000000000000000000000000081526004016101d090610934565b60405180910390fd5b6000600260009054906101000a900473ffffffffffffffffffffffffffffffffffffffff1673ffffffffffffffffffffffffffffffffffffffff166370a08231306040518263ffffffff1660e01b81526004016102369190610954565b602060405180830381865afa158015610253573d6000803e3d6000fd5b505050506040513d601f19601f820116820180604052508101906102779190610984565b9050600260009054906101000a900473ffffffffffffffffffffffffffffffffffffffff1673ffffffffffffffffffffffffffffffffffffffff16632e1a7d4d826040518263ffffffff1660e01b81526004016102d49190610811565b600060405180830381600087803b1580156102ee57600080fd5b505af1158015610302573d6000803e3d6000fd5b50505050600160009054906101000a900473ffffffffffffffffffffffffffffffffffffffff1673ffffffffffffffffffffffffffffffffffffffff1663a9059cbb83856040518363ffffffff1660e01b81526004016103639291906109b1565b6020604051808303816000875af1158015610382573d6000803e3d6000fd5b505050506040513d601f19601f820116820180604052508101906103a691906108aa565b506000600160009054906101000a900473ffffffffffffffffffffffffffffffffffffffff1673ffffffffffffffffffffffffffffffffffffffff166370a08231306040518263ffffffff1660e01b81526004016104049190610954565b602060405180830381865afa158015610421573d6000803e3d6000fd5b505050506040513d601f19601f820116820180604052508101906104459190610984565b9050600081111561045a57610459816105a9565b5b50505050565b600080600260009054906101000a900473ffffffffffffffffffffffffffffffffffffffff1673ffffffffffffffffffffffffffffffffffffffff166377c7b8fc6040518163ffffffff1660e01b8152600401602060405180830381865afa1580156104d0573d6000803e3d6000fd5b505050506040513d601f19601f820116820180604052508101906104f49190610984565b90506000600260009054906101000a900473ffffffffffffffffffffffffffffffffffffffff1673ffffffffffffffffffffffffffffffffffffffff166370a08231306040518263ffffffff1660e01b81526004016105539190610954565b602060405180830381865afa158015610570573d6000803e3d6000fd5b505050506040513d601f19601f820116820180604052508101906105949190610984565b905080826105a29190610a09565b9250505090565b600160009054906101000a900473ffffffffffffffffffffffffffffffffffffffff1673ffffffffffffffffffffffffffffffffffffffff1663095ea7b3600260009054906101000a900473ffffffffffffffffffffffffffffffffffffffff16836040518363ffffffff1660e01b81526004016106289291906109b1565b6020604051808303816000875af1158015610647573d6000803e3d6000fd5b505050506040513d601f19601f8201168201806040525081019061066b91906108aa565b50600260009054906101000a900473ffffffffffffffffffffffffffffffffffffffff1673ffffffffffffffffffffffffffffffffffffffff1663b6b55f25826040518263ffffffff1660e01b81526004016106c79190610811565b600060405180830381600087803b1580156106e157600080fd5b505af11580156106f5573d6000803e3d6000fd5b5050505050565b600080fd5b6000819050919050565b61071481610701565b811461071f57600080fd5b50565b6000813590506107318161070b565b92915050565b60006020828403121561074d5761074c6106fc565b5b600061075b84828501610722565b91505092915050565b600073ffffffffffffffffffffffffffffffffffffffff82169050919050565b600061078f82610764565b9050919050565b61079f81610784565b81146107aa57600080fd5b50565b6000813590506107bc81610796565b92915050565b600080604083850312156107d9576107d86106fc565b5b60006107e785828601610722565b92505060206107f8858286016107ad565b9150509250929050565b61080b81610701565b82525050565b60006020820190506108266000830184610802565b92915050565b61083581610784565b82525050565b6000606082019050610850600083018661082c565b61085d602083018561082c565b61086a6040830184610802565b949350505050565b60008115159050919050565b61088781610872565b811461089257600080fd5b50565b6000815190506108a48161087e565b92915050565b6000602082840312156108c0576108bf6106fc565b5b60006108ce84828501610895565b91505092915050565b600082825260208201905092915050565b7f4f6e6c792061646d696e21000000000000000000000000000000000000000000600082015250565b600061091e600b836108d7565b9150610929826108e8565b602082019050919050565b6000602082019050818103600083015261094d81610911565b9050919050565b6000602082019050610969600083018461082c565b92915050565b60008151905061097e8161070b565b92915050565b60006020828403121561099a576109996106fc565b5b60006109a88482850161096f565b91505092915050565b60006040820190506109c6600083018561082c565b6109d36020830184610802565b9392505050565b7f4e487b7100000000000000000000000000000000000000000000000000000000600052601160045260246000fd5b6000610a1482610701565b9150610a1f83610701565b9250828202610a2d81610701565b91508282048414831517610a4457610a436109da565b5b509291505056fea2646970667358221220666101b850805551d51dde148c5aa87831d00e598743ed36d59c4a3ac04a0ae764736f6c63430008140033",
  "devdoc": {
    "kind": "dev",
    "methods": {},
    "version": 1
  },
  "userdoc": {
    "kind": "user",
    "methods": {},
    "version": 1
  },
  "storageLayout": {
    "storage": [
      {
        "astId": 85,
        "contract": "contracts/Wallet.sol:Wallet",
        "label": "admin",
        "offset": 0,
        "slot": "0",
        "type": "t_address"
      },
      {
        "astId": 91,
        "contract": "contracts/Wallet.sol:Wallet",
        "label": "dai",
        "offset": 0,
        "slot": "1",
        "type": "t_contract(IERC20)77"
      },
      {
        "astId": 97,
        "contract": "contracts/Wallet.sol:Wallet",
        "label": "yDai",
        "offset": 0,
        "slot": "2",
        "type": "t_contract(IYDAI)285"
      },
      {
        "astId": 103,
        "contract": "contracts/Wallet.sol:Wallet",
        "label": "usdc",
        "offset": 0,
        "slot": "3",
        "type": "t_contract(IERC20)77"
      },
      {
        "astId": 109,
        "contract": "contracts/Wallet.sol:Wallet",
        "label": "yUsdc",
        "offset": 0,
        "slot": "4",
        "type": "t_contract(IYUSDC)310"
      },
      {
        "astId": 115,
        "contract": "contracts/Wallet.sol:Wallet",
        "label": "usdt",
        "offset": 0,
        "slot": "5",
        "type": "t_contract(IERC20)77"
      },
      {
        "astId": 121,
        "contract": "contracts/Wallet.sol:Wallet",
        "label": "yUsdt",
        "offset": 0,
        "slot": "6",
        "type": "t_contract(IYUSDT)335"
      }
    ],
    "types": {
      "t_address": {
        "encoding": "inplace",
        "label": "address",
        "numberOfBytes": "20"
      },
      "t_contract(IERC20)77": {
        "encoding": "inplace",
        "label": "contract IERC20",
        "numberOfBytes": "20"
      },
      "t_contract(IYDAI)285": {
        "encoding": "inplace",
        "label": "contract IYDAI",
        "numberOfBytes": "20"
      },
      "t_contract(IYUSDC)310": {
        "encoding": "inplace",
        "label": "contract IYUSDC",
        "numberOfBytes": "20"
      },
      "t_contract(IYUSDT)335": {
        "encoding": "inplace",
        "label": "contract IYUSDT",
        "numberOfBytes": "20"
      }
    }
  }
}